:0A04D100C2A1C2A28F80D2A27F0553
:0D04DB00EFD3940040077E6EDEFE0F80F32D
:0104E80022F1
:08050900C2A01204D1C2A2221B
:0C04E900E50D25E02411F808E62430FFA2
:0804F500D2A01204D1C2A22220
:10048A00E4FFEF25E0240FF8760008760A0FBF0A8A
:10049A00F1E4F50DF524F525F526F527F528F529D6
:1004AA00F509F50AF50BF50CF508F50EF5237F3875
:1004BA001205097F0F1205097F061205097F01122D
:0704CA0005097F800205090E
:10025B0075B0FE85B023E52364FE603E7F32120449
:10026B00DBE52364FE602EE523B4EE0312048AE57E
:10027B0023B4DE0A7F2F1204F5050E750801E52362
:10028B00B4BE0A7F2A1204F5050E750802E523B4E5
:10029B007E03750805E5B0B4FEFB75B0FD85B02394
:1002AB00E52364FD60557F321204DBE52364FD60BA
:1002BB0045E523B4ED0D7F371204F5050E752400CB
:1002CB00752507E523B4DD0D7F381204F5050E7592
:1002DB002400752508E523B4BD0D7F391204F505FF
:1002EB000E752400752509E523B47D0A7F2D1204B4
:1002FB00F5050E750803E5B0B4FDFB75B0FB85B0D5
:10030B0023E52364FB60557F321204DBE52364FB9A
:10031B006045E523B4EB0D7F341204F5050E75240F
:10032B0000752504E523B4DB0D7F351204F5050EAE
:10033B00752400752505E523B4BB0D7F361204F536
:10034B00050E752400752506E523B47B0A7F2B1259
:10035B0004F5050E750804E5B0B4FBFB75B0F78525
:10036B00B023E52364F760577F321204DBE5236487
:10037B00F76047E523B4E70C7F301204F5050EE474
:10038B00F524F525E523B4D70D7F311204F5050EC1
:10039B00752400752501E523B4B70D7F321204F5E2
:1003AB00050E752400752502E523B4770D7F3312F6
:1003BB0004F5050E752400752503E5B0B4F7FBE5D0
:1003CB000EB410057F07120509E5087014AE26AFB1
:1003DB0027FC7D0A1203EDE5252FF527E5243EF5D5
:0203EB002622C8
:10000300E508700512025B80F7E5086401600302EE
:1000130000A1852628852729F508F526F527E50873
:10002300700512025B80F7E5086405707185260987
:1000330085270AAC09AD0AAE28AF291203FF8E0B40
:100043008F0CE50C450B7009F521F522750D088021
:100053003A750D09D3E50C9400E50B648094804058
:100063002AAE0BAF0C7C007D0A1203FFE50D25E0E1
:10007300240FF8A60408A605AE0BAF0C7C007D0A7E
:100083001203FF8E0B8F0C150D80C97FC01205095B
:10009300E50DC3940950071204E9050D80F2E50844
:1000A30064026003020136852628852729F508F5B1
:1000B30026F527E508700512025B80F7E50864055D
:1000C300707185260985270AAC09AD0AAE28AF29C8
:1000D3001203ED8E0B8F0CE50C450B7009F521F522
:1000E30022750D08803A750D09D3E50C9400E50BD4
:1000F30064809480402AAE0BAF0C7C007D0A12030F
:10010300FFE50D25E0240FF8A60408A605AE0BAF06
:100113000C7C007D0A1203FF8E0B8F0C150D80C91A
:100123007FC0120509E50DC3940950071204E905C0
:100133000D80F2E508640360030201C78526288564
:100143002729F508F526F527E508700512025B80D7
:10015300F7E5086405706D85260985270AC3E52937
:10016300950AF50CE5289509F50B450C7009F52161
:10017300F522750D08803A750D09D3E50C9400E559
:100183000B64809480402AAE0BAF0C7C007D0A1276
:1001930003FFE50D25E0240FF8A60408A605AE0B22
:1001A300AF0C7C007D0A1203FF8E0B8F0C150D80A4
:1001B300C97FC0120509E50DC3940950071204E96C
:1001C300050D80F2E50864046003020257852628C2
:1001D300852729F508F526F527E508700512025B42
:1001E30080F7E5086405706C85260985270AE529EB
:1001F300250AF50CE5283509F50B450C7009F521A1
:10020300F522750D08803A750D09D3E50C9400E5C8
:100213000B64809480402AAE0BAF0C7C007D0A12E5
:1002230003FFE50D25E0240FF8A60408A605AE0B91
:10023300AF0C7C007D0A1203FF8E0B8F0C150D8013
:10024300C97FC0120509E50DC3940950071204E9DB
:08025300050D80F2E4F508221C
:0805110012048A12000380FBB2
:030000000204FDFA
:0C04FD00787FE4F6D8FD75812902051116
:1003ED00EF8DF0A4A8F0CF8CF0A428CE8DF0A42E24
:0203FD00FE22DE
:1003FF00C2D5EC30E709B2D5E4C39DFDE49CFCEE19
:10040F0030E715B2D5E4C39FFFE49EFE120435C357
:10041F00E49DFDE49CFC800312043530D507C3E452
:06042F009FFFE49EFE2287
:10043500BC000BBE0029EF8DF084FFADF022E4CCAB
:10044500F875F008EF2FFFEE33FEEC33FCEE9DEC74
:10045500984005FCEE9DFE0FD5F0E9E4CEFD22EDBA
:10046500F8F5F0EE8420D21CFEADF075F008EF2F04
:10047500FFED33FD4007985006D5F0F222C398FDF5
:050485000FD5F0EA2292
:00000001FF
